:1011F200000000003C8B43963D0F5C293D54FDF4FA
:101202003D8F5C293DB22D0E3DD70A3D3DF9DB23D2
:101212003E0E56043E1FBE773E322D0E3E43958152
:101222003E54FDF43E6666663E77CED93E849BA66A
:101232003E8D4FDF3E9581063E9E353F3EA6E979C3
:101242003EAF1AA03EB74BC73EC000003EC8312792
:101252003ED0624E3ED893753EE041893EE872B080
:101262003EF020C53EF851EC3F0000003F03D70A94
:101272003F07AE143F0B851F3F0F1AA03F12F1AA82
:101282003F16872B3F1A1CAC3F1DB22D3F2106256E
:101292003F249BA63F27EF9E3F2B43963F2E978DE1
:1012A2003F31EB853F34FDF43F3810623F3B22D1A2
:1012B2003F3E353F3F4147AE3F4418933F46E979B1
:1012C2003F49BA5E3F4C8B443F4F1AA03F51A9FCA5
:1012D2003F5439583F56C8B43F5916873F5B645A4A
:1012E2003F5DB22D3F5FBE773F620C4A3F64189369
:1012F2003F6624DD3F67EF9E3F69FBE73F6BC6A871
:101302003F6D4FDF3F6F1AA03F70A3D73F722D0E84
:101312003F7374BC3F74BC6A3F7604193F7851EC4A
:101322003F7851EC3F7958103F7A5E353F7B22D1AE
:101332003F7C28F63F7CED913F7D70A43F7E353F98
:101342003F7EB8523F7EF9DB3F7F7CEE3F7FBE7728
:101352003F7FBE773F8000003F800000000000001A
:10136200000000000000000000000000000000007B
:10137200000000000000000000000000000000006B
:10138200000000000000000000000000000000005B
:10139200000000000000000000000000000000004B
:1013A200000000000000000000000000000000003B
:1013B200000000000000000000000000000000002B
:1013C200000000000000000000000000000000001B
:1013D200000000000000000000000000000000000B
:1013E20000000000000000000000000000000000FB
:1013F20000000000000000000000000000000000EB
:1014020000000000000000000000000000000000DA
:1014120000000000000000000000000000000000CA
:1014220000000000000000000000000000000000BA
:1014320000000000000000000000000000000000AA
:10144200000000000000000000000000000000009A
:10145200000000000000000000000000000000008A
:10146200000000000000000000000000000000007A
:10147200000000000000000000000000000000006A
:10148200000000000000000000000000000000005A
:10149200000000000000000000000000000000004A
:1014A200000000000000000000000000000000003A
:1014B200000000000000000000000000000000002A
:100D2900D202786D120CDF000000007881120CDF0E
:100D3900000000007821120CDF000000009000196B
:100D4900120CF80000000090001E120CF8000000C0
:100D590000900022120CF800000000900026120CEE
:100D6900F80000000090002A120CF8000000009022
:100D7900002E120CF800000000E4900034F0A3F0FB
:100D8900900035E004F07006900034E004F0900023
:100D990034E0B407EBA3E0B4D0E6900005120CF8F8
:100DA900000000C3900005E0F8A3E0F9A3E0FAA36E
:100DB900E0FBC3E49BFFE49AFE740199FDE498FC0F
:100DC900900005120CD3538EEF538EF7438E049087
:100DD9000005E0FCA3E0FDA3E0FEA3E0FF78081214
:100DE9000C638FD6900005A3A3A3E0F5D753AFFBFF
:100DF900538EF7438E10E598543F4440F598438E3F
:100E090001D29C53A23F5397EF759A1075990130FF
:100E190099FDC299A29992997599023099FDC29941
:100E2900A29992997599FA3099FDC299A2999299C4
:100E3900C28C5389FC438E805389FB538FFE9000EB
:100E490014120CF8000015A0900014E0FCA3E0FDBA
:100E5900A3E0FEA3E0FF7808120C63900032EFF0E4
:100E6900FB900014A3A3A3E0FF900036F08B8C8FB6
:100E79008AD28CD2AFC2ACE4900034F0A3F012262F
:100E89001FE4900034F0A3F0900034E0FEA3E0FFEB
:100E9900E4FCFD7B607AEAF9F8D3120C4D4010901E
:100EA9000035E004F070E1900034E004F080D9E40A
:100EB900900034F0A3F0900034E0FEA3E0FFE4FCDE
:100EC900FD7B607AEAF9F8D3120C4D401090003599
:100ED900E004F070E1900034E004F080D9E490007F
:100EE90034F0A3F0900034E0FEA3E0FFE4FCFD7BC6
:100EF900607AEAF9F8D3120C4D4010900035E004FD
:100F0900F070E1900034E004F080D9E4900034F00E
:100F1900A3F0900034E0FEA3E0FFE4FCFD7B607ADF
:100F2900EAF9F8D3120C4D4010900035E004F07046
:100F3900E1900034E004F080D9E4900034F0A3F0AB
:100F4900900034E0FEA3E0FFE4FCFD7B607AEAF95F
:100F5900F8D3120C4D4010900035E004F070E19088
:100F69000034E004F080D9E4900034F0A3F090005C
:100F790034E0FEA3E0FFE4FCFD7B607AEAF9F8D3F4
:100F8900120C4D4010900035E004F070E1900034EF
:100F9900E004F080D9E4900034F0A3F0900034E04C
:100FA900FEA3E0FFE4FCFD7B607AEAF9F8D3120CBA
:100FB9004D4010900035E004F070E1900034E004F9
:100FC900F080D9E4900034F0A3F0900034E0FEA35F
:100FD900E0FFE4FCFD7B607AEAF9F8D3120C4D409E
:100FE90010900035E004F070E1900034E004F080E6
:100FF900D9E4900034F0A3F0900034E0FEA3E0FFC0
:10100900E4FCFD7B607AEAF9F8D3120C4D401090AC
:101019000035E004F070E1900034E004F080D9E498
:10102900900034F0A3F0900034E0FEA3E0FFE4FC6C
:10103900FD7B607AEAF9F8D3120C4D401090003527
:10104900E004F070E1900034E004F080D9E490000D
:1010590034F0A3F0900034E0FEA3E0FFE4FCFD7B54
:10106900607AEAF9F8D3120C4D4010900035E0048B
:10107900F070E1900034E004F080D9E4900034F09D
:10108900A3F0900034E0FEA3E0FFE4FCFD7B607A6E
:10109900EAF9F8D3120C4D4010900035E004F070D5
:1010A900E1900034E004F080D9E4900009F0A3F065
:1010B900308D2CC28D90000CE004F0700690000B6E
:1010C900E004F090000EE004F0700690000DE004DA
:1010D900F0900010E004F0700690000FE004F0902A
:1010E9000009E0FEA3E0FFEE70C6EF24F6602024BD
:1010F900EC603624F670030211E8242870B2E490FB
:10110900000BF0A3F0900009F0A3740AF080A1D3BA
:1011190090000CE0940490000BE094004092900041
:1011290009E4F0A3741EF080871216331217897828
:1011390061120C76900067120CD37865120C7690C8
:10114900006B120CD37851120C7690006F120CD3ED
:101159007855120C76900073120CD37859120C76CC
:10116900900077120CD3785D120C76120003783157
:10117900120C769000677401F01218D07869120C7D
:10118900769000677402F01218D07871120C76907C
:1011990000677403F01218D07F03122050900037B3
:1011A900EFF0E4900018F0900037E0FF900018E0AD
:1011B900FEC39F501E74392EF582E43400F583E096
:1011C900F5993099FDC299A2999299900018E00475
:1011D900F080D4900009E4F0A37428F00210B9E477
:0911E900900009F0A3F00210B916
:1014C200D2B4D2B50000000000000000000000000D
:1014D200000000000000000000000000000000000A
:1014E20000000000000000000000000000000000FA
:1014F20000000000000000000000000000000000EA
:1015020000000000000000000000000000000000D9
:1015120000000000000000000000000000000000C9
:1015220000000000000000000000000000000000B9
:10153200000000000000000000000000C2B4000033
:101542000000000000000000000000000000000099
:101552000000000000000000000000000000000089
:101562000000000000000000000000000000000079
:101572000000000000000000000000000000000069
:101582000000000000000000000000000000000059
:101592000000000000000000000000000000000049
:1015A2000000000000000000000000000000000039
:1015B200000000000000C2B50000000000000000B2
:1015C2000000000000000000000000000000000019
:1015D2000000000000000000000000000000000009
:1015E20000000000000000000000000000000000F9
:1015F20000000000000000000000000000000000E9
:1016020000000000000000000000000000000000D8
:1016120000000000000000000000000000000000C8
:1016220000000000000000000000000000000000B8
:011632002295
:101B2600C2B4D2B5000000000000000000000000B2
:101B3600000000000000000000000000000000009F
:101B4600000000000000000000000000000000008F
:101B5600000000000000000000000000000000007F
:101B6600000000000000000000000000000000006F
:101B7600000000000000000000000000000000005F
:101B8600000000000000000000000000000000004F
:101B9600000000000000000000000000D2B40000B9
:101BA600000000000000000000000000000000002F
:101BB600000000000000000000000000000000001F
:101BC600000000000000000000000000000000000F
:101BD60000000000000000000000000000000000FF
:101BE60000000000000000000000000000000000EF
:101BF60000000000000000000000000000000000DF
:101C060000000000000000000000000000000000CE
:071C160000000000000022A5
:1020F500E4FEEF25E0FF92B4D2B500000000000039
:1021050000000000000000000000000000000000CA
:1021150000000000000000000000000000000000BA
:1021250000000000000000000000000000000000AA
:10213500000000000000000000000000000000009A
:10214500C2B5000000000000000000000000000013
:10215500000000000000000000000000000000007A
:10216500000000000000000000000000000000006A
:10217500000000000000000000000000000000005A
:1021850000000000000000000EEE6408600302205D
:01219500F752
:012196002226
:101E5800E4FFD2B4FEEF25E0FFD2B5000000000099
:101E6800000000000000000000000000000000006A
:101E7800000000000000000000000000000000005A
:101E8800000000000000000000000000000000004A
:101E9800000000000000000000000000000000003A
:101EA80000A2B4E4334FFFC2B500000000000000F8
:101EB800000000000000000000000000000000001A
:101EC800000000000000000000000000000000000A
:101ED80000000000000000000000000000000000FA
:101EE8000000000000000000000000000000000EDC
:081EF800EE64086003021E5DA8
:011F000022BE
:07219700758300EF120C1D1F
:10219E00C2B4D2B500000000000000000000000034
:1021AE000000000000000000000000000000000021
:1021BE000000000000000000000000000000000011
:1021CE000000000000000000000000000000000001
:1021DE0000000000000000000000C2B5000000007A
:1021EE0000000000000000000000000000000000E1
:1021FE0000000000000000000000000000000000D1
:10220E0000000000000000000000000000000000C0
:10221E0000000000000000000000000000000000B0
:03222E000000228B
:101FAA00E0FBA3E0FAA3E0F9AE058E82758300EFA9
:031FBA00120C1DE9
:101FBD00D2B4D2B500000000000000000000000007
:101FCD000000000000000000000000000000000004
:101FDD0000000000000000000000000000000000F4
:101FED0000000000000000000000000000000000E4
:101FFD0000000000000000000000C2B5000000005D
:10200D0000000000000000000000000000000000C3
:10201D0000000000000000000000000000000000B3
:10202D0000000000000000000000000000000000A3
:10203D000000000000000000000000000000000093
:03204D000000226E
:101F0100AC071214C27FD01220F5121F13AF0412B6
:021F110020F5B9
:101F1300D2B4D2B5000000000000000000000000B1
:101F230000000000000000000000000000000000AE
:101F3300000000000000000000000000000000009E
:101F4300000000000000000000000000000000008E
:101F530000000000000000000000A2B49203C2B51C
:101F6300000000000000000000000000000000006E
:101F7300000000000000000000000000000000005E
:101F8300000000000000000000000000000000004E
:101F9300000000000000000000000000000000003E
:071FA3000000000000002215
:0E264000121F01AF051220F5121F13021B26F8
:0D24C700900063EBF0A3EAF0A3E9F0AD078D
:1024D4001214C27FD01220F5121F13AF051220F57B
:1024E400121F131214C27FD11220F5121F13E4FD20
:1024F400121E58900063E0FBA3E0FAA3E0F98D827A
:102504001221970DEDB40DE8121E58900063121FAE
:04251400AA021B26D6
:06251800E4FE7B017D01E1
:0B251E009000A3EBF0A3EAF0A3E9F0AB
:10252900121F011214C27FD11220F5121F13E4FCED
:10253900ED14FFECC39F5016121E589000A3E0FB48
:10254900A3E0FAA3E0F98C821221970C80E2121E13
:0A255900589000A3121FAA021B26CF
:0D2331009000A0EDF0A3EBF090009FEFF006
:10233E007B017A0079A27D0112251E9000A1E0603A
:10234E00209000A0E0FF74017E00A807088005C35E
:10235E0033CE33CED8F9FF9000A2E0FDEF4DFF80D3
:10236E00219000A0E0FF74017E00A807088005C33D
:10237E0033CE33CED8F9F4FF9000A2E0FDE4FEEFA9
:10238E005DFF9000A2EFF090009FE0FF9000A2E0B2
:04239E00FD022640D6
:0D22BD00900096EDF0A3EBF0900095EFF08F
:1022CA007A007999122518900097E0FD74017E0032
:1022DA00A805088005C333CE33CED8F924FFFFEE14
:1022EA0034FFFE900096E0C39D04FDEFA805088028
:1022FA0005C333CE33CED8F9FE900098E0FFA80587
:10230A00088002C333D8FC900098F05EF0FCA3E08A
:10231A00FDEEF4FEED5EF0E04CF0900095E0FF90EB
:07232A000099E0FD022640CE
:0E25A50090009AEDF0A3EBF0A3EAF0A3E9F0AA
:1025B3007B017A00799E7D0112251E90009AE0FF2F
:1025C3007401A807088002C333D8FCFF90009EE083
:1025D3005FFF90009BE0FBA3E0FAA3E0F9EF020C9E
:0125E3000BEC
:0823A20090008FEDF0A3EBF0B9
:1023AA007A007994122518900090E0FD74017E005D
:1023BA00A805088005C333CE33CED8F924FFFFEE33
:1023CA0034FFFE90008FE0C39D04FDEFA80508804E
:1023DA0005C333CE33CED8F9FE900094E05EF0E028
:1023EA00FFA805088002C313D8FC900094F0E0FF10
:0F23FA00900091E0FBA3E0FAA3E0F9EF020C0BD7
:10261F00E4FD7F6B1226407D077F191226407D0453
:10262F007F1A1226407D087F1B1226407F1C022630
:01263F00405A
:0B264E007B017A0079807F3B0224C7EB
:10246E00602A00390000000000000000000000009B
:10247E00000000000000000000000000000000004E
:0E248E00000000000000000000000000000040
:101DAE0090006FEBF0A3EAF0A3E9F0900003120BA2
:101DBE00DEFF90006BE0FBA3E0FAA3E0F9A3E0FEE8
:101DCE00F582758300EF120C1D90006FE0FBA3E00F
:101DDE00FAA3E0F9900002120BDEFFEE2401FDE4FF
:101DEE0033FC90006BE0FBA3E0FAA3E0F98D828C4C
:101DFE0083EF120C1D90006FE0FBA3E0FAA3E0F955
:101E0E00900001120BDEFFEE2402FDE433FC900085
:101E1E006BE0FBA3E0FAA3E0F98D828C83EF120C4A
:101E2E001D90006FE0FBA3E0FAA3E0F9120BC5FFD3
:101E3E00EE2403FDE433FC90006BE0FBA3E0FAA379
:0A1E4E00E0F98D828C83EF020C1D79
:1018D000900063120CD3900067E0FFD3940A40039A
:1018E000021A03EF7003021A03EF14B40A00400354
:1018F000021A0390190175F003A4C58325F0C5836E
:101900007302191F02193502194C02196302197A60
:101910000219900219A60219BC0219D20219E89004
:10192000006B7401F0A37400F0A37439F0A3740188
:10193000F0FB0219FC90006B7401F0A37400F0A39B
:101940007439F0A37405F07B010219FC90006B74EC
:1019500001F0A37400F0A37439F0A37409F07B01C3
:101960000219FC90006B7401F0A37400F0A37439A9
:10197000F0A3740DF07B010219FC90006B7401F070
:10198000A37400F0A37439F0A37411F07B01806C90
:1019900090006B7401F0A37400F0A37439F0A37489
:1019A00015F07B01805690006B7401F0A37400F079
:1019B000A37439F0A37419F07B01804090006B741C
:1019C00001F0A37400F0A37439F0A3741DF07B013F
:1019D000802A90006B7401F0A37400F0A37439F0B6
:1019E000A37421F07B01801490006B7401F0A37448
:1019F00000F0A37439F0A37425F07B017A007963B9
:041A0000121DAE22E3
:10205000EFD3940A5003EF70037F0022900039748D
:1020600024F0EF14B40A0040030220F290207A75A5
:10207000F003A4C58325F0C583730220980220A134
:102080000220AA0220B30220BC0220C50220CE02F8
:1020900020D70220E00220E990003E7405F07F0680
:1020A000229000427409F07F0A22900046740DF0DD
:1020B0007F0E2290004A7411F07F122290004E741D
:1020C00015F07F16229000527419F07F1A229000AA
:1020D00056741DF07F1E2290005A7421F07F222238
:1020E00090005E7425F07F26229000627429F07FB4
:0520F0002A227F0022FE
:10249C00042500000000042900000000042D0000A9
:1024AC00000004413F800000044500000000044986
:0A24BC0000000000044D00000000C5
:031C1D00120C7630
:061C2000900063120CD3DA
:101C2600900067E0FCA3E0FDA3E0FEA3E0FF9000C8
:101C360063E0F8A3E0F9A3E0FAA3E0FB120A66600A
:101C46003E403C900063E0FCA3E0FDA3E0FEA3E081
:101C5600FF90006F120CD3900067E0FCA3E0FDA399
:101C6600E0FEA3E0FF900063120CD390006FE0FC4F
:101C7600A3E0FDA3E0FEA3E0FF900067120CD39063
:101C86000067E0FCA3E0FDA3E0FEA3E0FFA3E0F80D
:101C9600A3E0F9A3E0FAA3E0FB120A666007400599
:101CA6009000678037900063E0FCA3E0FDA3E0FEB0
:101CB600A3E0FF90006BE0F8A3E0F9A3E0FAA3E04D
:101CC600FB120A666013401190006BE0FCA3E0FD76
:101CD600A3E0FEA3E0FFA38011900063E0FCA3E075
:101CE600FDA3E0FEA3E0FF90006F120CD390006FFF
:0B1CF600E0FCA3E0FDA3E0FEA3E0FF84
:011D010022BF
:05240900E0FFA3E0FD6F
:08240E00900063EFF0A3EDF074
:10241600EFFE7C00E42DFFEC3EFEE4FDFB7A80F946
:10242600F8D3120C4D900063E0FEA3E07C00501937
:102436002400FFEC3EFEE42FFFE43EFEE434FFFD05
:10244600EC34FFFC120AF0800A2400FDEC3EFCE4AA
:10245600120AF5900065120CD3900065E0FCA3E02B
:07246600FDA3E0FEA3E0FF6F
:01246D00224C
:102563009000801224097875120CC79000821224FF
:10257300097879120CC7900084122409787D120C13
:10258300C79000881224097835120CC790008A126C
:1025930024097839120CC790008C122409783D0263
:0225A3000CC763
:1016330012264E1225637875120C767885120CC724
:101643007879120C767889120CC7787D120C76782B
:101653008D120CC77835120C767891120CC7783935
:10166300120C767895120CC7783D120C7678991285
:101673000CC712264E1225637875120C76789D12CC
:101683000CC77879120C7678A1120CC7787D120CEE
:101693007678A5120CC77835120C7678A9120CC788
:1016A3007839120C7678AD120CC7783D120C767827
:1016B300B1120CC712264E122563789D120C769038
:1016C3000067120CD37875120C7690006B120CD352
:1016D3007885121C1D7875120CC778A1120C7690B0
:1016E3000067120CD37879120C7690006B120CD32E
:1016F3007889121C1D7879120CC778A5120C769084
:101703000067120CD3787D120C7690006B120CD309
:10171300788D120C76121C20787D120CC778A912D2
:101723000C76900067120CD37835120C7690006B10
:10173300120CD37891120C76121C207835120CC738
:1017430078AD120C76900067120CD37839120C76B0
:1017530090006B120CD37895120C76121C207839FA
:10176300120CC778B1120C76900067120CD3783D37
:10177300120C7690006B120CD37899120C76121C13
:0617830020783D020CC7B6
:10178900E4FBFAF97846C0007875120C76D000129D
:1017990009C97851120CC7E4FBFAF97846C00078F8
:1017A90079120C76D0001209C97855120CC7E4FBDE
:1017B900FAF97846C000787D120C76D0001209C972
:1017C9007859120CC7E4FBFA79837842C00078355E
:1017D900120C76D0001209C9785D120CC7E4FBFA25
:1017E90079837842C0007839120C76D0001209C981
:1017F9007861120CC7E4FBFA79837842C000783D1E
:10180900120C76D0001209C97865120CC77FDB7EED
:101819000F7D497C407851120C9E1208C0E4FBFAF6
:10182900793478431209C97851120CC77FDB7E0FCE
:101839007D497C407855120C9E1208C0E4FBFA7968
:101849003478431209C97855120CC77FDB7E0F7DA6
:10185900497C407859120C9E1208C0E4FBFA79348D
:1018690078431209C97859120CC77FDB7E0F7D496D
:101879007C40785D120C9E1208C0E4FBFA7934783A
:10188900431209C9785D120CC77FDB7E0F7D497C45
:10189900407861120C9E1208C0E4FBFA793478434F
:1018A9001209C97861120CC77FDB7E0F7D497C4024
:1018B9007865120C9E1208C0E4FBFA793478431259
:0718C90009C97865020CC794
:06000300900063120CD313
:100009007841120C767841120C9E1208C078A11220
:100019000CC77845120C767841120C9E1208C078EC
:10002900A5120CC77849120C767841120C9E120859
:10003900C078A9120CC7784D120C767841120C9E23
:100049001208C078AD120CC77845120C76784512A3
:100059000C9E1208C078B1120CC77849120C767838
:1000690045120C9E1208C078B5120CC7784D120CB7
:10007900767845120C9E1208C078B9120CC77849D7
:10008900120C767849120C9E1208C078BD120CC762
:10009900784D120C767849120C9E1208C078C1125C
:1000A9000CC7784D120C76784D120C9E1208C07848
:1000B900C5120CC7900073E0FCA3E0FDA3E0FEA30A
:1000C900E0FFA804A905AA06FB1208C0C004C005E0
:1000D900C006C00790006FE0FCA3E0FDA3E0FEA30B
:1000E900E0FFA804A905AA06FB1208C0D003D002A4
:1000F900D001D0001207CFC004C005C006C00790C8
:100109000077E0FCA3E0FDA3E0FEA3E0FFA804A9BB
:1001190005AA06FB1208C0D003D002D001D00012F4
:1001290007CF121D067885120CC790006FE0FCA35B
:10013900E0FDA3E0FEA3E0FF7885120C9E1209C939
:1001490090006F120CD3900073E0FCA3E0FDA3E0D4
:10015900FEA3E0FF7885120C9E1209C99000731264
:100169000CD3900077E0FCA3E0FDA3E0FEA3E0FF41
:100179007885120C9E1209C9900077120CD378A9C0
:10018900120C9EC00078B9120C76D0001207CBE48D
:10019900FBFAF978401208C07889120CC778C112A5
:1001A9000C7678A5120C9E1207CFE4FBFAF9784079
:1001B9001208C0788D120CC778B1120C9EC0007855
:1001C900A1120C76D0001207CB78BD120C9E120733
:1001D900CB78C5120C9E1207CF7891120CC7788D77
:1001E900120C76900077E0F8A3E0F9A3E0FAA3E017
:1001F900FB1208C0C004C005C006C0077891120CE4
:1002090076900073E0F8A3E0F9A3E0FAA3E0FB120B
:1002190008C0D003D002D001D0001207CB789512C4
:100229000CC77891120C7690006FE0F8A3E0F9A35F
:10023900E0FAA3E0FB1208C0C004C005C006C0076D
:100249007889120C76900077E0F8A3E0F9A3E0FA38
:10025900A3E0FB1208C0D003D002D001D0001207DE
:10026900CB7899120CC77889120C76900073E0F854
:10027900A3E0F9A3E0FAA3E0FB1208C0C004C0059B
:10028900C006C007788D120C7690006FE0F8A3E0E5
:10029900F9A3E0FAA3E0FB1208C0D003D002D00111
:1002A900D0001207CB789D120CC77825120C9EC07E
:1002B90000C001C002C0037F6F7E127D837C3A7843
:1002C90095120C9E1208C0D003D002D001D00012A2
:1002D90007CF7825120CC77829120C9EC000C001DF
:1002E900C002C0037F6F7E127D837C3A7899120C1D
:1002F9009E1208C0D003D002D001D0001207CF78D7
:1003090029120CC7782D120C9EC000C001C002C072
:10031900037F6F7E127D837C3A789D120C9E1208B2
:10032900C0D003D002D001D0001207CF782D120C13
:10033900C7E4FFFE7D207C417895120C9E1208C00F
:10034900900063E0F8A3E0F9A3E0FAA3E0FB120749
:10035900CF7825120C9E1207CF900063120CD3E4BC
:10036900FFFE7D207C417899120C9E1208C09000F6
:1003790067E0F8A3E0F9A3E0FAA3E0FB1207CF785E
:1003890029120C9E1207CF900067120CD3E4FFFECE
:100399007D207C41789D120C9E1208C090006BE074
:1003A900F8A3E0F9A3E0FAA3E0FB1207CF782D1236
:1003B9000C9E1207CF90006B120CD37841120C9E41
:1003C900C000C001C002C0037845120C76120ADFD2
:1003D900900063E0F8A3E0F9A3E0FAA3E0FB1208B8
:1003E900C0C004C005C006C007900067E0FCA3E0D8
:1003F900FDA3E0FEA3E0FF7849120C9E1208C0A8F5
:1004090004A905AA06AB07D007D006D005D0041267
:1004190007CBC004C005C006C00790006BE0FCA371
:10042900E0FDA3E0FEA3E0FF784D120C9E1208C088
:10043900A804A905AA06AB07D007D006D005D004A1
:100449001207CB7B6F7A127983783B1208C0D003ED
:10045900D002D001D0001207CF7841120CC77845DD
:10046900120C9EC000C001C002C00390006BE0FCEA
:10047900A3E0FDA3E0FEA3E0FF7849120C9E120859
:10048900C0C004C005C006C007900063E0FCA3E03B
:10049900FDA3E0FEA3E0FF7841120C9E1208C0D034
:1004A90003D002D001D0001207CFC004C005C00696
:1004B900C007900067E0FCA3E0FDA3E0FEA3E0FF16
:1004C900784D120C9E1208C0A804A905AA06AB070C
:1004D900D007D006D005D0041207CB7B6F7A1279EA
:1004E90083783B1208C0D003D002D001D000120794
:1004F900CF7845120CC77849120C9EC000C001C0C4
:1005090002C00390006BE0FCA3E0FDA3E0FEA3E0C2
:10051900FF7845120C9E1208C0C004C005C006C071
:1005290007900067E0FCA3E0FDA3E0FEA3E0FF78ED
:1005390041120C9E1208C0D003D002D001D0001283
:1005490007CBC004C005C006C007900063E0FCA348
:10055900E0FDA3E0FEA3E0FF784D120C9E1208C057
:10056900D003D002D001D0001207CF7B6F7A127965
:1005790083783B1208C0D003D002D001D000120703
:10058900CF7849120CC7784D120C9EC000C001C02B
:1005990002C003900067E0FCA3E0FDA3E0FEA3E036
:1005A900FF7845120C9E1208C0C004C005C006C0E1
:1005B9000790006BE0FCA3E0FDA3E0FEA3E0FF7859
:1005C90041120C9E1208C0D003D002D001D00012F3
:1005D90007CFC004C005C006C007900063E0FCA3B4
:1005E900E0FDA3E0FEA3E0FF7849120C9E1208C0CB
:1005F900A804A905AA06AB07D007D006D005D004E0
:100609001207CB7B6F7A127983783B1208C0D0032B
:10061900D002D001D0001207CF784D120CC778450F
:10062900120C767845120C9E1208C0C004C005C091
:1006390006C0077841120C767841120C9E1208C048
:10064900D003D002D001D0001207CFC004C005C02A
:1006590006C0077849120C767849120C9E1208C018
:10066900D003D002D001D0001207CFC004C005C00A
:1006790006C007784D120C76A804A905AA06AB078F
:100689001208C0D003D002D001D0001207CF121D2A
:10069900067885120CC77841120C767885120C9E63
:1006A9001209C97841120CC77845120C767885125F
:1006B9000C9E1209C97845120CC77849120C767834
:1006C90085120C9E1209C97849120CC7784D120C73
:1006D900767885120C9E1209C9784D120CC7784D8F
:1006E900120C767845120C9E1208C0C004C005C0D1
:1006F90006C0077849120C767841120C9E1208C080
:10070900D003D002D001D0001207CBE4FBFAF9786C
:10071900401208C01225E47BE17A2E7965784212ED
:1007290008C07831120CC7784D120C767849120C32
:100739009E1208C0C004C005C006C0077845120C47
:10074900767841120C9E1208C0D003D002D001D095
:10075900001207CFE4FBFAF978401208C01225E429
:10076900120ADF7BE17A2E796578421208C078692E
:10077900120CC7784D120C767841120C9E1208C0E3
:10078900C004C005C006C0077849120C7678451226
:100799000C9E1208C0D003D002D001D0001207CF9E
:1007A900E4FBFAF978401208C01225E4120ADF7B4B
:0F07B900E17A2E796578421208C07871020CC778
:1007C800020B63E86480F8E933E83360110460F0F1
:1007D800ED33EC337009E8FCE9FDEAFEEBFF220497
:1007E80060DED3EB9FEA9EE99DE8C2E78CF0C2F792
:1007F80095F0400CE8CCF8E9CDF9EACEFAEBCFFB5E
:10080800120B2E85D0F05804700320D5B3E804707D
:10081800075002B2D5020B6D92D5EC0460F7E4CC18
:10082800C0E0C398F8603B94186008400DD0E0FB26
:10083800020B45E4FBFAC9FC8028E830E406E4C969
:10084800FBE4CAFCE830E305E4C9CACBFCE854077A
:100858006010F8C3E913F9EA13FAEB13FBEC13FC85
:10086800D8F130F52FC3E49CFCEF9BFFEE9AFEED28
:1008780099FDD0E0FBEF4E4D4C701222DB03020BCA
:100888006AEC2CFCEF33FFEE33FEED33FDED30E781
:10089800EB020B45EF2BFFEE3AFEED39FDD0E0FB06
:1008A80050130BBB0003020B6DED13FDEE13FEEFAF
:0808B80013FFEC13FC020B45D9
:1008C000EC4D6011E8497017ED33EC3304600DE432
:1008D000FCFFFEFD22E933E8330470F8020B6312DB
:1008E0000B2E58046009E4CC2481500628500902DC
:1008F0000B6D284003020B6AC0E0EB4A7044B980DC
:1009000006D0E0FB020B59EF4E701CBD8008EBFFD8
:10091000EAFEE9FD80EBE98DF0A4FEE5F00209A90D
:10092000E9CDF9EAFEEBFFEF89F0A4FCE5F0CE8912
:10093000F0A42EFFE435F0CD89F0A42DFEE435F0CF
:100940008067EF4E7005BD80D780C3EF8BF0A4ACFD
:10095000F0EE8BF0A42CFCE435F0F8EF8AF0A42C38
:10096000E5F038FCE433CB8DF0A42CFCE5F03BF84B
:10097000EE8AF0A42CFCE5F038F8E433CF89F0A43B
:100980002CFCE5F038CF3400CE89F0A42FFFE5F041
:100990003EFEE433C98DF0A42EFEE5F039CD8AF099
:1009A000A42FFFE5F03EFEE43DFD33D0E0FB500711
:1009B0000BBB000F020B6DEC2CFCEF33FFEE33FE94
:0609C000ED33FD020B45C2
:1009C600020B6DEC5D046005E859047003020B63CD
:1009D600120B2E580460F6EC4860F2EC7004FDFE33
:1009E600FF22C860DB2481C85009C3986002500604
:1009F600020B6A9850CAF582E9294B4A7005AB8208
:100A0600020B5975F0007C1A7880C3EF9BEE9AEDC5
:100A160099400DC3EF9BFFEE9AFEED99FDE842F07B
:100A2600DC23ACF0D0E0FFD0E0FED0E0FDAB8220CE
:100A3600E7101BEB60BAEC2CFCEF33FFEE33FEED58
:100A460033FD020B45E803F830E705C0F075F0000A
:100A5600EF2FFFEE33FEED33FD40B830E7C280AA3C
:100A660074F8CC6480CCC86480C8F58204604FC337
:100A7600EB9FF5F0EA9E42F0E99D42F0E89C45F0D6
:100A8600603C501DE5825FFFE582D313CB5BCBF460
:100A96002B5582FB50280ABA002409B90020088089
:100AA6001DE5825BFBE582D313CF5FCFF4C3132F23
:100AB6005582FF50090EBE00050DBD00010CC3EBAB
:100AC6009FF5F0EA9E42F0E99D42F0E89C45F06011
:090AD60007CC4820E701B3EC2233
:100ADF00ED33EC33600A047003BD8004ECB2E7FC25
:010AEF0022E4
:100AF00075F020800E75F010800575F0087D007E81
:100B0000007F003392D530D503120C3FEC334010F8
:100B1000EF33FFEE33FEED33FDEC33FCD5F0ED2289
:0E0B2000E5F0247EA2D513CC92E7CDCEFF22C5
:101D0200020B6322EDA2E7D2E7F9EC3340F260F373
:101D1200B4FF08ED547F70E8020B6DF82481C2E035
:101D2200C0E0F40428FAC313FCED92E7FD90007BB7
:101D3200120CD3EEA2E7E9BA7F02C3133400940077
:101D4200FA75F091A4E5F013F494FE8AF0A433E559
:101D5200F033248CD313FDE492E7FE7F007C3F75C1
:101D62008302ECC0E0F8EDC0E0F9EEC0E0FAEFC0AB
:101D7200E0FB8583F090007B120C8285F0831209D0
:101D8200C9D0E0FBD0E0FAD0E0F9D0E0F81207CFFA
:101D9200ED6480FD30E7011CD583C7ED33CC33F809
:0C1DA200D0E0A2E71328C313CC13FD22ED
:1025E400ECC0E0F8EDC0E0F9EEC0E0FAEFC0E0FBCB
:1025F4001208C0EC6480FC7B007A007980783F127A
:1026040007CF121D06D0E0CFFBD0E0CEFAD0E0CD4C
:0B261400F9D0E0CCF81209C9021A242A
:100B2E00E9D2E7C933E833F892D5EDD2E7CD33EC0D
:070B3E0033FC5002B2D52286
:100B4500EC30E7100FBF000C0EBE00080DBD000411
:100B55000BEB6014A2D5EB13FCED92E7FD2274FFBD
:100B6500FCFDFEFF22E480F8A2D574FF13FC7D8016
:030B7500E480EF2A
:101A0400BE1249253E4CCCCDBEAAAAAB3F800000F5
:101A14003E7ADBB03EED63383F24BC7D3F490FDBAB
:101A2400ED33ECC2E7CC339200B4FF13ED547F6086
:101A340003020B637FDB7E0F7DC97C3F021B19C24F
:101A440001C3947F401E7007EDD2E794904015EFD8
:101A5400FBEEFAEDF9ECF87F007E007D807C3F120E
:101A640009C9D201ED33EC33248430E705E4C0E046
:101A7400806B04FAEDD2E754F0C333DAFD54073433
:101A8400002323C0E0CCC0E0F8EDC0E0F9EEC0E0F4
:101A9400FAEFC0E0FBE4120AFAEC24FEFC90007BAF
:101AA400120CD31208C07B007A007980783F1207A9
:101AB400CF90007BE0B2E7CCF0A3E0CDF0A3E0CE82
:101AC400F0A3E0CFF0D0E0FBD0E0FAD0E0F9D0E032
:101AD400F81207CF90007B120CAB1209C990007B5F
:101AE400120CD3901A047403120B7890007B120C1E
:101AF400AB1208C0D0E0600F2410F582E4341AF56C
:101B040083120CB71207CF30010B7BDB7A0F79C934
:101B140078BF1207CFED33EC336006ECA20092E7F6
:021B2400FC22A1
:100B7800C0E0EFFBEEFAEDF9ECF81208C0D0E0F5B2
:100B8800F0EFFBEEFAEDF9ECF8120C8EA3A3A3A399
:100B9800E8C0E0E9C0E0EAC0E0EBC0E0C0F012085D
:100BA800C0120CB7A3A3A3A31207CFD0F0D0E0FBC9
:0D0BB800D0E0FAD0E0F9D0E0F8D5F0D4227A
:03000000022231A8
:0C223100787FE4F6D8FD7581C8022278A1
:100BC500BB010689828A83E0225002E722BBFE022E
:090BD500E32289828A83E4932261
:100BDE00BB010CE58229F582E5833AF583E02250CC
:100BEE0006E92582F8E622BBFE06E92582F8E22216
:0D0BFE00E58229F582E5833AF583E4932230
:100C0B00BB010689828A83F0225002F722BBFE01C8
:020C1B00F322C2
:100C1D00F8BB010DE58229F582E5833AF583E8F00D
:100C2D00225006E92582C8F622BBFE05E92582C8B9
:020C3D00F222A1
:0E0C3F00C3E49FFFE49EFEE49DFDE49CFC22C6
:100C4D00EB9FF5F0EA9E42F0E99D42F0EC6480C81E
:060C5D0064809845F022BE
:100C6300E8600FECC313FCED13FDEE13FEEF13FF6F
:030C7300D8F12293
:0C0C7600E6FC08E6FD08E6FE08E6FF22AA
:0C0C8200E0FCA3E0FDA3E0FEA3E0FF22E5
:100C8E00E493FC740193FD740293FE740393FF22AC
:0D0C9E00E6FB08E6F908E6FA08E6CBF822C6
:0C0CAB00E0F8A3E0F9A3E0FAA3E0FB22CC
:100CB700E493F8740193F9740293FA740393FB2293
:0C0CC700ECF608EDF608EEF608EFF62259
:0C0CD300ECF0A3EDF0A3EEF0A3EFF02294
:100CDF00D083D082E493F608740193F608740293DC
:090CEF00F608740393F674047313
:100CF800A8828583F0D083D082120D0F120D0F12B7
:100D08000D0F120D0FE473E493A3C583C5F0C583DB
:100D1800C8C582C8F0A3C583C5F0C583C8C582C845
:010D280022A8
:10223D00020D29E493A3F8E493A34003F68001F281
:10224D0008DFF48029E493A3F85407240CC8C333A2
:10225D00C4540F4420C8834004F456800146F6DF71
:10226D00E4800B010204081020408090246EE47E6F
:10227D00019360BCA3FF543F30E509541FFEE49366
:10228D00A360010ECF54C025E060A840B8E493A32D
:10229D00FAE493A3F8E493A3C8C582C8CAC583CA58
:1022AD00F0A3C8C582C8CAC583CADFE9DEE780BE10
:0124C6000015
:00000001FF
